{
  "contractName": "Vaccination",
  "abi": [
    {
      "inputs": [],
      "stateMutability": "nonpayable",
      "type": "constructor"
    },
    {
      "inputs": [
        {
          "internalType": "uint256",
          "name": "",
          "type": "uint256"
        }
      ],
      "name": "admins",
      "outputs": [
        {
          "internalType": "address",
          "name": "",
          "type": "address"
        }
      ],
      "stateMutability": "view",
      "type": "function"
    },
    {
      "inputs": [
        {
          "internalType": "string",
          "name": "",
          "type": "string"
        },
        {
          "internalType": "uint256",
          "name": "",
          "type": "uint256"
        }
      ],
      "name": "approvedBatches",
      "outputs": [
        {
          "internalType": "uint256",
          "name": "batch_id",
          "type": "uint256"
        },
        {
          "internalType": "uint256",
          "name": "defrost_date",
          "type": "uint256"
        },
        {
          "internalType": "uint256",
          "name": "manufacture_expiry",
          "type": "uint256"
        },
        {
          "internalType": "uint256",
          "name": "use_by_date",
          "type": "uint256"
        }
      ],
      "stateMutability": "view",
      "type": "function"
    },
    {
      "inputs": [
        {
          "internalType": "string",
          "name": "",
          "type": "string"
        },
        {
          "internalType": "uint256",
          "name": "",
          "type": "uint256"
        },
        {
          "internalType": "address",
          "name": "",
          "type": "address"
        }
      ],
      "name": "approvedOperators",
      "outputs": [
        {
          "internalType": "uint256",
          "name": "",
          "type": "uint256"
        }
      ],
      "stateMutability": "view",
      "type": "function"
    },
    {
      "inputs": [
        {
          "internalType": "uint256",
          "name": "",
          "type": "uint256"
        }
      ],
      "name": "approvedVaccineNames",
      "outputs": [
        {
          "internalType": "string",
          "name": "",
          "type": "string"
        }
      ],
      "stateMutability": "view",
      "type": "function"
    },
    {
      "inputs": [
        {
          "internalType": "string",
          "name": "",
          "type": "string"
        }
      ],
      "name": "approvedVaccines",
      "outputs": [
        {
          "internalType": "string",
          "name": "name",
          "type": "string"
        },
        {
          "internalType": "bool",
          "name": "approved",
          "type": "bool"
        }
      ],
      "stateMutability": "view",
      "type": "function"
    },
    {
      "inputs": [],
      "name": "fullyVaccinated",
      "outputs": [
        {
          "internalType": "uint256",
          "name": "",
          "type": "uint256"
        }
      ],
      "stateMutability": "view",
      "type": "function"
    },
    {
      "inputs": [
        {
          "internalType": "address",
          "name": "",
          "type": "address"
        }
      ],
      "name": "healthPersons",
      "outputs": [
        {
          "internalType": "address",
          "name": "org",
          "type": "address"
        },
        {
          "internalType": "bool",
          "name": "approved",
          "type": "bool"
        }
      ],
      "stateMutability": "view",
      "type": "function"
    },
    {
      "inputs": [
        {
          "internalType": "address",
          "name": "",
          "type": "address"
        }
      ],
      "name": "organizations",
      "outputs": [
        {
          "internalType": "string",
          "name": "name",
          "type": "string"
        },
        {
          "internalType": "string",
          "name": "location",
          "type": "string"
        },
        {
          "internalType": "bool",
          "name": "approved",
          "type": "bool"
        },
        {
          "internalType": "bool",
          "name": "registration",
          "type": "bool"
        },
        {
          "internalType": "uint256",
          "name": "vaccined",
          "type": "uint256"
        }
      ],
      "stateMutability": "view",
      "type": "function"
    },
    {
      "inputs": [
        {
          "internalType": "uint256",
          "name": "",
          "type": "uint256"
        }
      ],
      "name": "organizationsList",
      "outputs": [
        {
          "internalType": "address",
          "name": "",
          "type": "address"
        }
      ],
      "stateMutability": "view",
      "type": "function"
    },
    {
      "inputs": [],
      "name": "partiallyVaccinated",
      "outputs": [
        {
          "internalType": "uint256",
          "name": "",
          "type": "uint256"
        }
      ],
      "stateMutability": "view",
      "type": "function"
    },
    {
      "inputs": [],
      "name": "superAdmin",
      "outputs": [
        {
          "internalType": "address",
          "name": "",
          "type": "address"
        }
      ],
      "stateMutability": "view",
      "type": "function"
    },
    {
      "inputs": [
        {
          "internalType": "address",
          "name": "",
          "type": "address"
        }
      ],
      "name": "users",
      "outputs": [
        {
          "internalType": "string",
          "name": "vaccine_name",
          "type": "string"
        },
        {
          "internalType": "uint256",
          "name": "vaccine_count",
          "type": "uint256"
        }
      ],
      "stateMutability": "view",
      "type": "function"
    },
    {
      "inputs": [],
      "name": "getApprovedVaccinesLength",
      "outputs": [
        {
          "internalType": "uint256",
          "name": "",
          "type": "uint256"
        }
      ],
      "stateMutability": "view",
      "type": "function"
    },
    {
      "inputs": [
        {
          "internalType": "string",
          "name": "name",
          "type": "string"
        }
      ],
      "name": "getVaccineApprovalStatus",
      "outputs": [
        {
          "internalType": "bool",
          "name": "",
          "type": "bool"
        }
      ],
      "stateMutability": "view",
      "type": "function"
    },
    {
      "inputs": [
        {
          "internalType": "string",
          "name": "name",
          "type": "string"
        },
        {
          "internalType": "uint256[]",
          "name": "schedule",
          "type": "uint256[]"
        }
      ],
      "name": "approveVaccine",
      "outputs": [],
      "stateMutability": "nonpayable",
      "type": "function"
    },
    {
      "inputs": [
        {
          "internalType": "string",
          "name": "name",
          "type": "string"
        },
        {
          "internalType": "uint256",
          "name": "batch_id",
          "type": "uint256"
        },
        {
          "internalType": "uint256",
          "name": "defrost_date",
          "type": "uint256"
        },
        {
          "internalType": "uint256",
          "name": "manufacture_expiry",
          "type": "uint256"
        },
        {
          "internalType": "uint256",
          "name": "use_by_date",
          "type": "uint256"
        },
        {
          "internalType": "uint256",
          "name": "units",
          "type": "uint256"
        }
      ],
      "name": "addBatch",
      "outputs": [],
      "stateMutability": "nonpayable",
      "type": "function"
    },
    {
      "inputs": [
        {
          "internalType": "address",
          "name": "to",
          "type": "address"
        },
        {
          "internalType": "string",
          "name": "name",
          "type": "string"
        },
        {
          "internalType": "uint256",
          "name": "batch_id",
          "type": "uint256"
        },
        {
          "internalType": "uint256",
          "name": "units",
          "type": "uint256"
        }
      ],
      "name": "transfer",
      "outputs": [],
      "stateMutability": "nonpayable",
      "type": "function"
    },
    {
      "inputs": [
        {
          "internalType": "address",
          "name": "to",
          "type": "address"
        },
        {
          "internalType": "string",
          "name": "name",
          "type": "string"
        },
        {
          "internalType": "uint256",
          "name": "batch_id",
          "type": "uint256"
        }
      ],
      "name": "vaccinate",
      "outputs": [],
      "stateMutability": "nonpayable",
      "type": "function"
    },
    {
      "inputs": [
        {
          "internalType": "address",
          "name": "user",
          "type": "address"
        }
      ],
      "name": "getUserVaccineCount",
      "outputs": [
        {
          "internalType": "uint256",
          "name": "",
          "type": "uint256"
        }
      ],
      "stateMutability": "view",
      "type": "function"
    },
    {
      "inputs": [
        {
          "internalType": "string",
          "name": "name",
          "type": "string"
        }
      ],
      "name": "getRequiredVaccineCount",
      "outputs": [
        {
          "internalType": "uint256",
          "name": "",
          "type": "uint256"
        }
      ],
      "stateMutability": "view",
      "type": "function"
    },
    {
      "inputs": [],
      "name": "getTotalOrganization",
      "outputs": [
        {
          "internalType": "uint256",
          "name": "",
          "type": "uint256"
        }
      ],
      "stateMutability": "view",
      "type": "function"
    },
    {
      "inputs": [
        {
          "internalType": "address",
          "name": "user",
          "type": "address"
        }
      ],
      "name": "getVaccineStatusOf",
      "outputs": [
        {
          "internalType": "enum Vaccination.VaccineStatus",
          "name": "status",
          "type": "uint8"
        }
      ],
      "stateMutability": "view",
      "type": "function"
    },
    {
      "inputs": [
        {
          "internalType": "string",
          "name": "name",
          "type": "string"
        },
        {
          "internalType": "uint256",
          "name": "batch_id",
          "type": "uint256"
        }
      ],
      "name": "checkBatch",
      "outputs": [],
      "stateMutability": "view",
      "type": "function"
    },
    {
      "inputs": [
        {
          "internalType": "address",
          "name": "org",
          "type": "address"
        }
      ],
      "name": "checkOrganization",
      "outputs": [],
      "stateMutability": "view",
      "type": "function"
    },
    {
      "inputs": [
        {
          "internalType": "string",
          "name": "name",
          "type": "string"
        },
        {
          "internalType": "string",
          "name": "location",
          "type": "string"
        }
      ],
      "name": "registerOrganization",
      "outputs": [],
      "stateMutability": "payable",
      "type": "function"
    },
    {
      "inputs": [
        {
          "internalType": "address",
          "name": "org",
          "type": "address"
        }
      ],
      "name": "approveOrganization",
      "outputs": [],
      "stateMutability": "nonpayable",
      "type": "function"
    },
    {
      "inputs": [
        {
          "internalType": "address",
          "name": "person",
          "type": "address"
        }
      ],
      "name": "approveHealthPerson",
      "outputs": [],
      "stateMutability": "nonpayable",
      "type": "function"
    },
    {
      "inputs": [
        {
          "internalType": "address",
          "name": "org",
          "type": "address"
        }
      ],
      "name": "registerAsHealthPerson",
      "outputs": [],
      "stateMutability": "payable",
      "type": "function"
    },
    {
      "inputs": [
        {
          "internalType": "address",
          "name": "healthPerson",
          "type": "address"
        }
      ],
      "name": "getHealthPersonOrganization",
      "outputs": [
        {
          "internalType": "address",
          "name": "",
          "type": "address"
        }
      ],
      "stateMutability": "view",
      "type": "function"
    },
    {
      "inputs": [
        {
          "internalType": "string",
          "name": "name",
          "type": "string"
        },
        {
          "internalType": "uint256",
          "name": "batch_id",
          "type": "uint256"
        },
        {
          "internalType": "address",
          "name": "healthPerson",
          "type": "address"
        }
      ],
      "name": "checkAvailability",
      "outputs": [],
      "stateMutability": "view",
      "type": "function"
    },
    {
      "inputs": [
        {
          "internalType": "string",
          "name": "name",
          "type": "string"
        },
        {
          "internalType": "uint256",
          "name": "batch",
          "type": "uint256"
        },
        {
          "internalType": "address",
          "name": "org",
          "type": "address"
        }
      ],
      "name": "getAvailableVaccines",
      "outputs": [
        {
          "internalType": "uint256",
          "name": "",
          "type": "uint256"
        }
      ],
      "stateMutability": "view",
      "type": "function"
    }
  ],
  "bytecode": "0x608060405234801561001057600080fd5b5033600960006101000a81548173ffffffffffffffffffffffffffffffffffffffff021916908373ffffffffffffffffffffffffffffffffffffffff160217905550600160076000600960009054906101000a900473ffffffffffffffffffffffffffffffffffffffff1673ffffffffffffffffffffffffffffffffffffffff1673ffffffffffffffffffffffffffffffffffffffff16815260200190815260200160002060006101000a81548160ff021916908315150217905550613a8f806100db6000396000f3fe6080604052600436106101d85760003560e01c8063669ade7e11610102578063ab51280811610095578063ea1fc74711610064578063ea1fc74714610756578063ecfab0341461077f578063fc1ba160146107a8578063ff6aa4ea146107d1576101d8565b8063ab51280814610676578063cd5f31bb146106b3578063cd96c2f8146106dc578063e09eaca514610719576101d8565b806391db02f8116100d157806391db02f8146105a75780639cc52761146105e4578063a62a3d291461060d578063a87430ba14610638576101d8565b8063669ade7e146104d857806369ed503f146105165780636b847d551461053f5780637217fcfd1461057c576101d8565b8063247a50d81161017a5780633c419f53116101495780633c419f53146103f25780634cd89fc41461042f5780634d8335d01461046c5780635a1f740614610497576101d8565b8063247a50d81461035757806325de97ef1461037357806329575f6a1461039c5780632eb1ca66146103c7576101d8565b806314fa0c8b116101b657806314fa0c8b146102735780631bb9488d1461029c5780631ee584ac146102da57806322fce92114610317576101d8565b80630194306f146101dd57806307c2f085146101f957806314bfd6d014610236575b600080fd5b6101f760048036038101906101f29190612824565b6107fa565b005b34801561020557600080fd5b50610220600480360381019061021b9190612ad8565b61091d565b60405161022d91906132fd565b60405180910390f35b34801561024257600080fd5b5061025d60048036038101906102589190612bf0565b610965565b60405161026a9190612fa0565b60405180910390f35b34801561027f57600080fd5b5061029a60048036038101906102959190612b47565b6109a4565b005b3480156102a857600080fd5b506102c360048036038101906102be9190612943565b610bf6565b6040516102d192919061303c565b60405180910390f35b3480156102e657600080fd5b5061030160048036038101906102fc9190612bf0565b610cc5565b60405161030e9190612fa0565b60405180910390f35b34801561032357600080fd5b5061033e60048036038101906103399190612a7c565b610d04565b60405161034e9493929190613318565b60405180910390f35b610371600480360381019061036c9190612a04565b610d57565b005b34801561037f57600080fd5b5061039a60048036038101906103959190612824565b610ea8565b005b3480156103a857600080fd5b506103b1611108565b6040516103be9190612fa0565b60405180910390f35b3480156103d357600080fd5b506103dc61112e565b6040516103e991906132fd565b60405180910390f35b3480156103fe57600080fd5b5061041960048036038101906104149190612bf0565b611134565b604051610426919061301a565b60405180910390f35b34801561043b57600080fd5b5061045660048036038101906104519190612824565b6111e0565b6040516104639190612fa0565b60405180910390f35b34801561047857600080fd5b5061048161124c565b60405161048e91906132fd565b60405180910390f35b3480156104a357600080fd5b506104be60048036038101906104b99190612824565b611259565b6040516104cf95949392919061306c565b60405180910390f35b3480156104e457600080fd5b506104ff60048036038101906104fa9190612824565b6113b9565b60405161050d929190612fbb565b60405180910390f35b34801561052257600080fd5b5061053d60048036038101906105389190612851565b61140a565b005b34801561054b57600080fd5b5061056660048036038101906105619190612824565b611725565b60405161057391906132fd565b60405180910390f35b34801561058857600080fd5b50610591611776565b60405161059e91906132fd565b60405180910390f35b3480156105b357600080fd5b506105ce60048036038101906105c99190612824565b611783565b6040516105db9190612fff565b60405180910390f35b3480156105f057600080fd5b5061060b60048036038101906106069190612824565b611876565b005b34801561061957600080fd5b50610622611ae6565b60405161062f91906132fd565b60405180910390f35b34801561064457600080fd5b5061065f600480360381019061065a9190612824565b611aec565b60405161066d9291906130cd565b60405180910390f35b34801561068257600080fd5b5061069d60048036038101906106989190612943565b611b98565b6040516106aa9190612fe4565b60405180910390f35b3480156106bf57600080fd5b506106da60048036038101906106d59190612ad8565b611bcf565b005b3480156106e857600080fd5b5061070360048036038101906106fe9190612943565b611cf8565b60405161071091906132fd565b60405180910390f35b34801561072557600080fd5b50610740600480360381019061073b9190612ad8565b611d25565b60405161074d91906132fd565b60405180910390f35b34801561076257600080fd5b5061077d60048036038101906107789190612a7c565b611d9d565b005b34801561078b57600080fd5b506107a660048036038101906107a19190612824565b611e16565b005b3480156107b457600080fd5b506107cf60048036038101906107ca919061298c565b611f37565b005b3480156107dd57600080fd5b506107f860048036038101906107f391906128c0565b61201d565b005b600a34101561083e576040517f08c379a00000000000000000000000000000000000000000000000000000000081526004016108359061319d565b60405180910390fd5b80600660003373ffffffffffffffffffffffffffffffffffffffff1673ffffffffffffffffffffffffffffffffffffffff16815260200190815260200160002060000160006101000a81548173ffffffffffffffffffffffffffffffffffffffff021916908373ffffffffffffffffffffffffffffffffffffffff1602179055506000600660003373ffffffffffffffffffffffffffffffffffffffff1673ffffffffffffffffffffffffffffffffffffffff16815260200190815260200160002060000160146101000a81548160ff02191690831515021790555050565b60028380516020810182018051848252602083016020850120818352809550505050505060205281600052604060002060205280600052604060002060009250925050505481565b6008818154811061097557600080fd5b906000526020600020016000915054906101000a900473ffffffffffffffffffffffffffffffffffffffff1681565b6000866040516109b49190612f72565b908152602001604051809103902060030160009054906101000a900460ff16610a12576040517f08c379a0000000000000000000000000000000000000000000000000000000008152600401610a099061315d565b60405180910390fd5b84600187604051610a239190612f72565b908152602001604051809103902060008781526020019081526020016000206000018190555083600187604051610a5a9190612f72565b908152602001604051809103902060008781526020019081526020016000206001018190555082600187604051610a919190612f72565b908152602001604051809103902060008781526020019081526020016000206002018190555081600187604051610ac89190612f72565b9081526020016040518091039020600087815260200190815260200160002060030181905550600086604051610afe9190612f72565b908152602001604051809103902060020185908060018154018082558091505060019003906000526020600020016000909190919091505580600287604051610b479190612f72565b9081526020016040518091039020600087815260200190815260200160002060003373ffffffffffffffffffffffffffffffffffffffff1673ffffffffffffffffffffffffffffffffffffffff1681526020019081526020016000208190555080600460003373ffffffffffffffffffffffffffffffffffffffff1673ffffffffffffffffffffffffffffffffffffffff16815260200190815260200160002060030181905550505050505050565b600081805160208101820180518482526020830160208501208183528095505050505050600091509050806000018054610c2f90613554565b80601f0160208091040260200160405190810160405280929190818152602001828054610c5b90613554565b8015610ca85780601f10610c7d57610100808354040283529160200191610ca8565b820191906000526020600020905b815481529060010190602001808311610c8b57829003601f168201915b5050505050908060030160009054906101000a900460ff16905082565b600a8181548110610cd557600080fd5b906000526020600020016000915054906101000a900473ffffffffffffffffffffffffffffffffffffffff1681565b600182805160208101820180518482526020830160208501208183528095505050505050602052806000526040600020600091509150508060000154908060010154908060020154908060030154905084565b600a341015610d9b576040517f08c379a0000000000000000000000000000000000000000000000000000000008152600401610d929061319d565b60405180910390fd5b81600560003373ffffffffffffffffffffffffffffffffffffffff1673ffffffffffffffffffffffffffffffffffffffff1681526020019081526020016000206000019080519060200190610df19291906125fc565b5080600560003373ffffffffffffffffffffffffffffffffffffffff1673ffffffffffffffffffffffffffffffffffffffff1681526020019081526020016000206001019080519060200190610e489291906125fc565b506001600560003373ffffffffffffffffffffffffffffffffffffffff1673ffffffffffffffffffffffffffffffffffffffff16815260200190815260200160002060030160016101000a81548160ff0219169083151502179055505050565b600560003373ffffffffffffffffffffffffffffffffffffffff1673ffffffffffffffffffffffffffffffffffffffff16815260200190815260200160002060030160009054906101000a900460ff16610f37576040517f08c379a0000000000000000000000000000000000000000000000000000000008152600401610f2e9061325d565b60405180910390fd5b3373ffffffffffffffffffffffffffffffffffffffff16600660008373ffffffffffffffffffffffffffffffffffffffff1673ffffffffffffffffffffffffffffffffffffffff16815260200190815260200160002060000160009054906101000a900473ffffffffffffffffffffffffffffffffffffffff1673ffffffffffffffffffffffffffffffffffffffff1614611007576040517f08c379a0000000000000000000000000000000000000000000000000000000008152600401610ffe9061321d565b60405180910390fd5b6001600660008373ffffffffffffffffffffffffffffffffffffffff1673ffffffffffffffffffffffffffffffffffffffff16815260200190815260200160002060000160146101000a81548160ff021916908315150217905550600560003373ffffffffffffffffffffffffffffffffffffffff1673ffffffffffffffffffffffffffffffffffffffff168152602001908152602001600020600201819080600181540180825580915050600190039060005260206000200160009091909190916101000a81548173ffffffffffffffffffffffffffffffffffffffff021916908373ffffffffffffffffffffffffffffffffffffffff16021790555050565b600960009054906101000a900473ffffffffffffffffffffffffffffffffffffffff1681565b600c5481565b6003818154811061114457600080fd5b90600052602060002001600091509050805461115f90613554565b80601f016020809104026020016040519081016040528092919081815260200182805461118b90613554565b80156111d85780601f106111ad576101008083540402835291602001916111d8565b820191906000526020600020905b8154815290600101906020018083116111bb57829003601f168201915b505050505081565b6000600660008373ffffffffffffffffffffffffffffffffffffffff1673ffffffffffffffffffffffffffffffffffffffff16815260200190815260200160002060000160009054906101000a900473ffffffffffffffffffffffffffffffffffffffff169050919050565b6000600380549050905090565b600560205280600052604060002060009150905080600001805461127c90613554565b80601f01602080910402602001604051908101604052809291908181526020018280546112a890613554565b80156112f55780601f106112ca576101008083540402835291602001916112f5565b820191906000526020600020905b8154815290600101906020018083116112d857829003601f168201915b50505050509080600101805461130a90613554565b80601f016020809104026020016040519081016040528092919081815260200182805461133690613554565b80156113835780601f1061135857610100808354040283529160200191611383565b820191906000526020600020905b81548152906001019060200180831161136657829003601f168201915b5050505050908060030160009054906101000a900460ff16908060030160019054906101000a900460ff16908060040154905085565b60066020528060005260406000206000915090508060000160009054906101000a900473ffffffffffffffffffffffffffffffffffffffff16908060000160149054906101000a900460ff16905082565b600660003373ffffffffffffffffffffffffffffffffffffffff1673ffffffffffffffffffffffffffffffffffffffff16815260200190815260200160002060000160149054906101000a900460ff16611499576040517f08c379a00000000000000000000000000000000000000000000000000000000081526004016114909061327d565b60405180910390fd5b6114a4828233611bcf565b6114ae838361227a565b81600460008573ffffffffffffffffffffffffffffffffffffffff1673ffffffffffffffffffffffffffffffffffffffff16815260200190815260200160002060000190805190602001906115049291906125fc565b50600460008473ffffffffffffffffffffffffffffffffffffffff1673ffffffffffffffffffffffffffffffffffffffff168152602001908152602001600020600101819080600181540180825580915050600190039060005260206000200160009091909190915055600460008473ffffffffffffffffffffffffffffffffffffffff1673ffffffffffffffffffffffffffffffffffffffff1681526020019081526020016000206002014290806001815401808255809150506001900390600052602060002001600090919091909150556001600460008573ffffffffffffffffffffffffffffffffffffffff1673ffffffffffffffffffffffffffffffffffffffff168152602001908152602001600020600301600082825461162a919061341b565b9250508190555060016002836040516116439190612f72565b908152602001604051809103902060008381526020019081526020016000206000600660003373ffffffffffffffffffffffffffffffffffffffff1673ffffffffffffffffffffffffffffffffffffffff16815260200190815260200160002060000160009054906101000a900473ffffffffffffffffffffffffffffffffffffffff1673ffffffffffffffffffffffffffffffffffffffff1673ffffffffffffffffffffffffffffffffffffffff16815260200190815260200160002060008282546117109190613471565b92505081905550611720836124eb565b505050565b600080600460008473ffffffffffffffffffffffffffffffffffffffff1673ffffffffffffffffffffffffffffffffffffffff16815260200190815260200160002060030154905080915050919050565b6000600a80549050905090565b600080600460008473ffffffffffffffffffffffffffffffffffffffff1673ffffffffffffffffffffffffffffffffffffffff168152602001908152602001600020600301549050600080600460008673ffffffffffffffffffffffffffffffffffffffff1673ffffffffffffffffffffffffffffffffffffffff16815260200190815260200160002060000160405161181d9190612f89565b9081526020016040518091039020600101805490509050600082141561184857600092505050611871565b8082101561185b57600192505050611871565b8082141561186e57600292505050611871565b50505b919050565b600960009054906101000a900473ffffffffffffffffffffffffffffffffffffffff1673ffffffffffffffffffffffffffffffffffffffff163373ffffffffffffffffffffffffffffffffffffffff1614611906576040517f08c379a00000000000000000000000000000000000000000000000000000000081526004016118fd906132dd565b60405180910390fd5b600560008273ffffffffffffffffffffffffffffffffffffffff1673ffffffffffffffffffffffffffffffffffffffff16815260200190815260200160002060030160019054906101000a900460ff16611995576040517f08c379a000000000000000000000000000000000000000000000000000000000815260040161198c906131bd565b60405180910390fd5b600560008273ffffffffffffffffffffffffffffffffffffffff1673ffffffffffffffffffffffffffffffffffffffff16815260200190815260200160002060030160009054906101000a900460ff1615611a25576040517f08c379a0000000000000000000000000000000000000000000000000000000008152600401611a1c9061317d565b60405180910390fd5b6001600560008373ffffffffffffffffffffffffffffffffffffffff1673ffffffffffffffffffffffffffffffffffffffff16815260200190815260200160002060030160006101000a81548160ff021916908315150217905550600a819080600181540180825580915050600190039060005260206000200160009091909190916101000a81548173ffffffffffffffffffffffffffffffffffffffff021916908373ffffffffffffffffffffffffffffffffffffffff16021790555050565b600b5481565b6004602052806000526040600020600091509050806000018054611b0f90613554565b80601f0160208091040260200160405190810160405280929190818152602001828054611b3b90613554565b8015611b885780601f10611b5d57610100808354040283529160200191611b88565b820191906000526020600020905b815481529060010190602001808311611b6b57829003601f168201915b5050505050908060030154905082565b60008082604051611ba99190612f72565b908152602001604051809103902060030160009054906101000a900460ff169050919050565b611bd88361258b565b611be28383611d9d565b6000600284604051611bf49190612f72565b908152602001604051809103902060008481526020019081526020016000206000600660008573ffffffffffffffffffffffffffffffffffffffff1673ffffffffffffffffffffffffffffffffffffffff16815260200190815260200160002060000160009054906101000a900473ffffffffffffffffffffffffffffffffffffffff1673ffffffffffffffffffffffffffffffffffffffff1673ffffffffffffffffffffffffffffffffffffffff1681526020019081526020016000205411611cf3576040517f08c379a0000000000000000000000000000000000000000000000000000000008152600401611cea9061313d565b60405180910390fd5b505050565b60008082604051611d099190612f72565b9081526020016040518091039020600101805490509050919050565b6000600284604051611d379190612f72565b9081526020016040518091039020600084815260200190815260200160002060008373ffffffffffffffffffffffffffffffffffffffff1673ffffffffffffffffffffffffffffffffffffffff1681526020019081526020016000205490509392505050565b6000600183604051611daf9190612f72565b908152602001604051809103902060008381526020019081526020016000206000015411611e12576040517f08c379a0000000000000000000000000000000000000000000000000000000008152600401611e099061329d565b60405180910390fd5b5050565b600560008273ffffffffffffffffffffffffffffffffffffffff1673ffffffffffffffffffffffffffffffffffffffff16815260200190815260200160002060030160019054906101000a900460ff16611ea5576040517f08c379a0000000000000000000000000000000000000000000000000000000008152600401611e9c906130fd565b60405180910390fd5b600560008273ffffffffffffffffffffffffffffffffffffffff1673ffffffffffffffffffffffffffffffffffffffff16815260200190815260200160002060030160009054906101000a900460ff16611f34576040517f08c379a0000000000000000000000000000000000000000000000000000000008152600401611f2b9061311d565b60405180910390fd5b50565b81600083604051611f489190612f72565b90815260200160405180910390206000019080519060200190611f6c9291906125fc565b5080600083604051611f7e9190612f72565b90815260200160405180910390206001019080519060200190611fa2929190612682565b50600382908060018154018082558091505060019003906000526020600020016000909190919091509080519060200190611fde9291906125fc565b506001600083604051611ff19190612f72565b908152602001604051809103902060030160006101000a81548160ff0219169083151502179055505050565b600960009054906101000a900473ffffffffffffffffffffffffffffffffffffffff1673ffffffffffffffffffffffffffffffffffffffff163373ffffffffffffffffffffffffffffffffffffffff16146120ad576040517f08c379a00000000000000000000000000000000000000000000000000000000081526004016120a4906132dd565b60405180910390fd5b6120b684611e16565b6120bf8361258b565b806002846040516120d09190612f72565b9081526020016040518091039020600084815260200190815260200160002060003373ffffffffffffffffffffffffffffffffffffffff1673ffffffffffffffffffffffffffffffffffffffff16815260200190815260200160002054101561216e576040517f08c379a00000000000000000000000000000000000000000000000000000000081526004016121659061323d565b60405180910390fd5b8060028460405161217f9190612f72565b9081526020016040518091039020600084815260200190815260200160002060003373ffffffffffffffffffffffffffffffffffffffff1673ffffffffffffffffffffffffffffffffffffffff16815260200190815260200160002060008282546121ea9190613471565b92505081905550806002846040516122029190612f72565b9081526020016040518091039020600084815260200190815260200160002060008673ffffffffffffffffffffffffffffffffffffffff1673ffffffffffffffffffffffffffffffffffffffff168152602001908152602001600020600082825461226d919061341b565b9250508190555050505050565b6122838161258b565b6000600460008473ffffffffffffffffffffffffffffffffffffffff1673ffffffffffffffffffffffffffffffffffffffff16815260200190815260200160002060000180546122d290613554565b80601f01602080910402602001604051908101604052809291908181526020018280546122fe90613554565b801561234b5780601f106123205761010080835404028352916020019161234b565b820191906000526020600020905b81548152906001019060200180831161232e57829003601f168201915b5050505050905060008290506000825111156124865780518251146123a5576040517f08c379a000000000000000000000000000000000000000000000000000000000815260040161239c906131fd565b60405180910390fd5b60005b8251811015612484578181815181106123c4576123c361368d565b5b602001015160f81c60f81b7effffffffffffffffffffffffffffffffffffffffffffffffffffffffffffff19168382815181106124045761240361368d565b5b602001015160f81c60f81b7effffffffffffffffffffffffffffffffffffffffffffffffffffffffffffff191614612471576040517f08c379a0000000000000000000000000000000000000000000000000000000008152600401612468906131fd565b60405180910390fd5b808061247c906135b7565b9150506123a8565b505b600061249185611725565b9050600061249e85611cf8565b9050808214156124e3576040517f08c379a00000000000000000000000000000000000000000000000000000000081526004016124da906132bd565b60405180910390fd5b505050505050565b60006124f682611783565b905060028081111561250b5761250a61362f565b5b81600281111561251e5761251d61362f565b5b141561253f576001600c6000828254612537919061341b565b925050819055505b600160028111156125535761255261362f565b5b8160028111156125665761256561362f565b5b1415612587576001600b600082825461257f919061341b565b925050819055505b5050565b60008160405161259b9190612f72565b908152602001604051809103902060030160009054906101000a900460ff166125f9576040517f08c379a00000000000000000000000000000000000000000000000000000000081526004016125f0906131dd565b60405180910390fd5b50565b82805461260890613554565b90600052602060002090601f01602090048101928261262a5760008555612671565b82601f1061264357805160ff1916838001178555612671565b82800160010185558215612671579182015b82811115612670578251825591602001919060010190612655565b5b50905061267e91906126cf565b5090565b8280548282559060005260206000209081019282156126be579160200282015b828111156126bd5782518255916020019190600101906126a2565b5b5090506126cb91906126cf565b5090565b5b808211156126e85760008160009055506001016126d0565b5090565b60006126ff6126fa84613382565b61335d565b90508083825260208201905082856020860282011115612722576127216136f0565b5b60005b858110156127525781612738888261280f565b845260208401935060208301925050600181019050612725565b5050509392505050565b600061276f61276a846133ae565b61335d565b90508281526020810184848401111561278b5761278a6136f5565b5b612796848285613512565b509392505050565b6000813590506127ad81613a2b565b92915050565b600082601f8301126127c8576127c76136eb565b5b81356127d88482602086016126ec565b91505092915050565b600082601f8301126127f6576127f56136eb565b5b813561280684826020860161275c565b91505092915050565b60008135905061281e81613a42565b92915050565b60006020828403121561283a576128396136ff565b5b60006128488482850161279e565b91505092915050565b60008060006060848603121561286a576128696136ff565b5b60006128788682870161279e565b935050602084013567ffffffffffffffff811115612899576128986136fa565b5b6128a5868287016127e1565b92505060406128b68682870161280f565b9150509250925092565b600080600080608085870312156128da576128d96136ff565b5b60006128e88782880161279e565b945050602085013567ffffffffffffffff811115612909576129086136fa565b5b612915878288016127e1565b93505060406129268782880161280f565b92505060606129378782880161280f565b91505092959194509250565b600060208284031215612959576129586136ff565b5b600082013567ffffffffffffffff811115612977576129766136fa565b5b612983848285016127e1565b91505092915050565b600080604083850312156129a3576129a26136ff565b5b600083013567ffffffffffffffff8111156129c1576129c06136fa565b5b6129cd858286016127e1565b925050602083013567ffffffffffffffff8111156129ee576129ed6136fa565b5b6129fa858286016127b3565b9150509250929050565b60008060408385031215612a1b57612a1a6136ff565b5b600083013567ffffffffffffffff811115612a3957612a386136fa565b5b612a45858286016127e1565b925050602083013567ffffffffffffffff811115612a6657612a656136fa565b5b612a72858286016127e1565b9150509250929050565b60008060408385031215612a9357612a926136ff565b5b600083013567ffffffffffffffff811115612ab157612ab06136fa565b5b612abd858286016127e1565b9250506020612ace8582860161280f565b9150509250929050565b600080600060608486031215612af157612af06136ff565b5b600084013567ffffffffffffffff811115612b0f57612b0e6136fa565b5b612b1b868287016127e1565b9350506020612b2c8682870161280f565b9250506040612b3d8682870161279e565b9150509250925092565b60008060008060008060c08789031215612b6457612b636136ff565b5b600087013567ffffffffffffffff811115612b8257612b816136fa565b5b612b8e89828a016127e1565b9650506020612b9f89828a0161280f565b9550506040612bb089828a0161280f565b9450506060612bc189828a0161280f565b9350506080612bd289828a0161280f565b92505060a0612be389828a0161280f565b9150509295509295509295565b600060208284031215612c0657612c056136ff565b5b6000612c148482850161280f565b91505092915050565b612c26816134a5565b82525050565b612c35816134b7565b82525050565b612c4481613500565b82525050565b6000612c55826133f4565b612c5f81856133ff565b9350612c6f818560208601613521565b612c7881613704565b840191505092915050565b6000612c8e826133f4565b612c988185613410565b9350612ca8818560208601613521565b80840191505092915050565b60008154612cc181613554565b612ccb8186613410565b94506001821660008114612ce65760018114612cf757612d2a565b60ff19831686528186019350612d2a565b612d00856133df565b60005b83811015612d2257815481890152600182019150602081019050612d03565b838801955050505b50505092915050565b6000612d406015836133ff565b9150612d4b82613715565b602082019050919050565b6000612d63601d836133ff565b9150612d6e8261373e565b602082019050919050565b6000612d866017836133ff565b9150612d9182613767565b602082019050919050565b6000612da9601c836133ff565b9150612db482613790565b602082019050919050565b6000612dcc6021836133ff565b9150612dd7826137b9565b604082019050919050565b6000612def6014836133ff565b9150612dfa82613808565b602082019050919050565b6000612e12602c836133ff565b9150612e1d82613831565b604082019050919050565b6000612e356018836133ff565b9150612e4082613880565b602082019050919050565b6000612e586017836133ff565b9150612e63826138a9565b602082019050919050565b6000612e7b602f836133ff565b9150612e86826138d2565b604082019050919050565b6000612e9e6016836133ff565b9150612ea982613921565b602082019050919050565b6000612ec1600c836133ff565b9150612ecc8261394a565b602082019050919050565b6000612ee4600c836133ff565b9150612eef82613973565b602082019050919050565b6000612f07600d836133ff565b9150612f128261399c565b602082019050919050565b6000612f2a6019836133ff565b9150612f35826139c5565b602082019050919050565b6000612f4d600a836133ff565b9150612f58826139ee565b602082019050919050565b612f6c816134f6565b82525050565b6000612f7e8284612c83565b915081905092915050565b6000612f958284612cb4565b915081905092915050565b6000602082019050612fb56000830184612c1d565b92915050565b6000604082019050612fd06000830185612c1d565b612fdd6020830184612c2c565b9392505050565b6000602082019050612ff96000830184612c2c565b92915050565b60006020820190506130146000830184612c3b565b92915050565b600060208201905081810360008301526130348184612c4a565b905092915050565b600060408201905081810360008301526130568185612c4a565b90506130656020830184612c2c565b9392505050565b600060a08201905081810360008301526130868188612c4a565b9050818103602083015261309a8187612c4a565b90506130a96040830186612c2c565b6130b66060830185612c2c565b6130c36080830184612f63565b9695505050505050565b600060408201905081810360008301526130e78185612c4a565b90506130f66020830184612f63565b9392505050565b6000602082019050818103600083015261311681612d33565b9050919050565b6000602082019050818103600083015261313681612d56565b9050919050565b6000602082019050818103600083015261315681612d79565b9050919050565b6000602082019050818103600083015261317681612d9c565b9050919050565b6000602082019050818103600083015261319681612dbf565b9050919050565b600060208201905081810360008301526131b681612de2565b9050919050565b600060208201905081810360008301526131d681612e05565b9050919050565b600060208201905081810360008301526131f681612e28565b9050919050565b6000602082019050818103600083015261321681612e4b565b9050919050565b6000602082019050818103600083015261323681612e6e565b9050919050565b6000602082019050818103600083015261325681612e91565b9050919050565b6000602082019050818103600083015261327681612eb4565b9050919050565b6000602082019050818103600083015261329681612ed7565b9050919050565b600060208201905081810360008301526132b681612efa565b9050919050565b600060208201905081810360008301526132d681612f1d565b9050919050565b600060208201905081810360008301526132f681612f40565b9050919050565b60006020820190506133126000830184612f63565b92915050565b600060808201905061332d6000830187612f63565b61333a6020830186612f63565b6133476040830185612f63565b6133546060830184612f63565b95945050505050565b6000613367613378565b90506133738282613586565b919050565b6000604051905090565b600067ffffffffffffffff82111561339d5761339c6136bc565b5b602082029050602081019050919050565b600067ffffffffffffffff8211156133c9576133c86136bc565b5b6133d282613704565b9050602081019050919050565b60008190508160005260206000209050919050565b600081519050919050565b600082825260208201905092915050565b600081905092915050565b6000613426826134f6565b9150613431836134f6565b9250827fffffffffffffffffffffffffffffffffffffffffffffffffffffffffffffffff0382111561346657613465613600565b5b828201905092915050565b600061347c826134f6565b9150613487836134f6565b92508282101561349a57613499613600565b5b828203905092915050565b60006134b0826134d6565b9050919050565b60008115159050919050565b60008190506134d182613a17565b919050565b600073ffffffffffffffffffffffffffffffffffffffff82169050919050565b6000819050919050565b600061350b826134c3565b9050919050565b82818337600083830152505050565b60005b8381101561353f578082015181840152602081019050613524565b8381111561354e576000848401525b50505050565b6000600282049050600182168061356c57607f821691505b602082108114156135805761357f61365e565b5b50919050565b61358f82613704565b810181811067ffffffffffffffff821117156135ae576135ad6136bc565b5b80604052505050565b60006135c2826134f6565b91507fffffffffffffffffffffffffffffffffffffffffffffffffffffffffffffffff8214156135f5576135f4613600565b5b600182019050919050565b7f4e487b7100000000000000000000000000000000000000000000000000000000600052601160045260246000fd5b7f4e487b7100000000000000000000000000000000000000000000000000000000600052602160045260246000fd5b7f4e487b7100000000000000000000000000000000000000000000000000000000600052602260045260246000fd5b7f4e487b7100000000000000000000000000000000000000000000000000000000600052603260045260246000fd5b7f4e487b7100000000000000000000000000000000000000000000000000000000600052604160045260246000fd5b600080fd5b600080fd5b600080fd5b600080fd5b600080fd5b6000601f19601f8301169050919050565b7f496e76616c6964206f7267616e697a6174696f6e2e0000000000000000000000600082015250565b7f4f7267616e697a6174696f6e206973206e6f7420617070726f7665642e000000600082015250565b7f496e73756666696369656e742076616363696e652e2e2e000000000000000000600082015250565b7f56616363696e65206973206e6f742079657420617070726f7665642e00000000600082015250565b7f4f7267616e697a6174696f6e20697320616c726561647920617070726f76656460008201527f2e00000000000000000000000000000000000000000000000000000000000000602082015250565b7f496e73756666696369656e7420616d6f756e742e000000000000000000000000600082015250565b7f4f7267616e697a6174696f6e206d75737420666972737420726567697374657260008201527f20746f20617070726f76652e0000000000000000000000000000000000000000602082015250565b7f56616363696e65206973206e6f7420617070726f7665642e0000000000000000600082015250565b7f56616363696e65206e6f7420636f6d70617469626c652e000000000000000000600082015250565b7f4865616c7468706572736f6e20646f206e6f742062656c6f6e6720746f20746860008201527f65206f7267616e697a6174696f6e2e0000000000000000000000000000000000602082015250565b7f496e73756666696369656e742076616363696e65732e00000000000000000000600082015250565b7f4f7267616e697a6174696f6e0000000000000000000000000000000000000000600082015250565b7f4865616c7468506572736f6e0000000000000000000000000000000000000000600082015250565b7f496e76616c696420626174636800000000000000000000000000000000000000600082015250565b7f46756c6c792076616363696e6174656420616c72656164792e00000000000000600082015250565b7f737570657241646d696e00000000000000000000000000000000000000000000600082015250565b60038110613a2857613a2761362f565b5b50565b613a34816134a5565b8114613a3f57600080fd5b50565b613a4b816134f6565b8114613a5657600080fd5b5056fea264697066735822122059dc94e29b5ed2d6da11fa81e66ec9e3037bd481e1ab2ae548c79d77820f223364736f6c63430008050033",
  "immutableReferences": {},
  "source": "// SPDX-License-Identifier: MIT\npragma solidity >=0.4.22 <0.9.0;\n\nuint256 constant REGISTRATION_COST = 10;\n\ncontract Vaccination {\n    enum VaccineStatus {\n        UNVACCINATED,\n        PARTIALLY_VACCINATED,\n        FULLY_VACCINATED\n    }\n\n    enum Gender {\n        MALE,\n        FEMALE,\n        UNSPECIFIED\n    }\n\n    struct Vaccine {\n        string name;\n        uint256 batchNo;\n        uint256 vaccination_datetime;\n        // uint256 serialNo;\n    }\n\n    struct BatchDetails {\n        uint256 batch_id;\n        uint256 defrost_date;\n        uint256 manufacture_expiry;\n        uint256 use_by_date;\n    }\n\n    struct VaccineDetails {\n        string name;\n        // string platform;\n        // string route;\n        // string details;\n        uint256[] schedule;\n        uint256[] batches;\n        bool approved;\n    }\n\n    struct User {\n        // uint8 age;\n        // Gender gender;\n        string vaccine_name;\n        uint256[] batches;\n        uint256[] datetime;\n        uint256 vaccine_count;\n    }\n\n    struct Organization {\n        string name;\n        string location;\n        address[] healthPersons;\n        bool approved;\n        bool registration;\n        uint256 vaccined;\n    }\n\n    struct HealthPerson {\n        address org;\n        bool approved;\n    }\n\n    mapping(string => VaccineDetails) public approvedVaccines;\n    mapping(string => mapping(uint256 => BatchDetails)) public approvedBatches;\n    mapping(string => mapping(uint256 => mapping(address => uint256)))\n        public approvedOperators;\n\n    string[] public approvedVaccineNames;\n\n    mapping(address => User) public users;\n    mapping(address => Organization) public organizations;\n    mapping(address => HealthPerson) public healthPersons;\n\n    mapping(address => bool) adminStatus;\n    address[] public admins;\n\n    address public superAdmin;\n\n    address[] public organizationsList;\n\n    // uint256 public registered;\n    uint256 public partiallyVaccinated;\n    uint256 public fullyVaccinated;\n\n    //uint256 public total_vaccines;\n\n    constructor() {\n        superAdmin = msg.sender;\n        adminStatus[superAdmin] = true;\n    }\n\n    function getApprovedVaccinesLength() public view returns (uint256) {\n        return approvedVaccineNames.length;\n    }\n\n    function getVaccineApprovalStatus(string memory name)\n        public\n        view\n        returns (bool)\n    {\n        return approvedVaccines[name].approved;\n    }\n\n    function approveVaccine(string memory name, uint256[] memory schedule)\n        public\n    {\n        approvedVaccines[name].name = name;\n        approvedVaccines[name].schedule = schedule;\n        approvedVaccineNames.push(name);\n        approvedVaccines[name].approved = true;\n    }\n\n    function addBatch(\n        string memory name,\n        uint256 batch_id,\n        uint256 defrost_date,\n        uint256 manufacture_expiry,\n        uint256 use_by_date,\n        uint256 units\n    ) public {\n        if (!approvedVaccines[name].approved) {\n            revert(\"Vaccine is not yet approved.\");\n        }\n        //Add checks for valid date\n        approvedBatches[name][batch_id].batch_id = batch_id;\n        approvedBatches[name][batch_id].defrost_date = defrost_date;\n        approvedBatches[name][batch_id].manufacture_expiry = manufacture_expiry;\n        approvedBatches[name][batch_id].use_by_date = use_by_date;\n        approvedVaccines[name].batches.push(batch_id);\n        approvedOperators[name][batch_id][msg.sender] = units;\n        users[msg.sender].vaccine_count = units;\n    }\n\n    function transfer(\n        address to,\n        string memory name,\n        uint256 batch_id,\n        uint256 units\n    ) public onlySuperAdmin {\n        checkOrganization(to);\n        checkVaccine(name);\n\n        if (approvedOperators[name][batch_id][msg.sender] < units) {\n            revert(\"Insufficient vaccines.\");\n        }\n        approvedOperators[name][batch_id][msg.sender] -= units;\n        approvedOperators[name][batch_id][to] += units;\n    }\n\n    function vaccinate(\n        address to,\n        string memory name,\n        uint256 batch_id\n    ) public onlyHealthPerson {\n        checkAvailability(name, batch_id, msg.sender);\n        checkUserVaccineCompatibility(to, name);\n        users[to].vaccine_name = name;\n        users[to].batches.push(batch_id);\n        users[to].datetime.push(block.timestamp);\n        users[to].vaccine_count += 1;\n        approvedOperators[name][batch_id][healthPersons[msg.sender].org] -= 1;\n        changeStatus(to);\n    }\n\n    function getUserVaccineCount(address user) public view returns (uint256) {\n        uint256 count = users[user].vaccine_count;\n        return count;\n    }\n\n    function getRequiredVaccineCount(string memory name)\n        public\n        view\n        returns (uint256)\n    {\n        return approvedVaccines[name].schedule.length;\n    }\n\n    function getTotalOrganization() public view returns (uint256) {\n        return organizationsList.length;\n    }\n\n    function getVaccineStatusOf(address user)\n        public\n        view\n        returns (VaccineStatus status)\n    {\n        uint256 user_vaccineCount = users[user].vaccine_count;\n        uint256 required_vaccineCount = approvedVaccines[\n            users[user].vaccine_name\n        ]\n        .schedule\n        .length;\n\n        if (user_vaccineCount == 0) {\n            return VaccineStatus.UNVACCINATED;\n        }\n        if (user_vaccineCount < required_vaccineCount) {\n            return VaccineStatus.PARTIALLY_VACCINATED;\n        }\n        if (user_vaccineCount == required_vaccineCount) {\n            return VaccineStatus.FULLY_VACCINATED;\n        }\n    }\n\n    function checkVaccine(string memory name) private view {\n        if (!approvedVaccines[name].approved) {\n            revert(\"Vaccine is not approved.\");\n        }\n    }\n\n    function checkBatch(string memory name, uint256 batch_id) public view {\n        require(approvedBatches[name][batch_id].batch_id > 0, \"Invalid batch\");\n        // require(\n        //     approvedBatches[name][batch_id].defrost_date < block.timestamp,\n        //     \"Must be previously defrosted\"\n        // );\n        // require(\n        //     approvedBatches[name][batch_id].manufacture_expiry >\n        //         block.timestamp,\n        //     \"Expired\"\n        // );\n        // require(\n        //     approvedBatches[name][batch_id].use_by_date > block.timestamp,\n        //     \"Must be previously used.\"\n        // );\n    }\n\n    function checkOrganization(address org) public view {\n        if (!organizations[org].registration) {\n            revert(\"Invalid organization.\");\n        }\n        if (!organizations[org].approved) {\n            revert(\"Organization is not approved.\");\n        }\n    }\n\n    function checkUserVaccineCompatibility(address user, string memory name)\n        private\n        view\n    {\n        checkVaccine(name);\n        bytes memory _user_recieved_vaccine = bytes(users[user].vaccine_name);\n        bytes memory _user_recieving_vaccine = bytes(name);\n\n        if (_user_recieved_vaccine.length > 0) {\n            if (\n                _user_recieved_vaccine.length != _user_recieving_vaccine.length\n            ) {\n                revert(\"Vaccine not compatible.\");\n            }\n            for (uint256 i = 0; i < _user_recieved_vaccine.length; i++) {\n                if (_user_recieved_vaccine[i] != _user_recieving_vaccine[i]) {\n                    revert(\"Vaccine not compatible.\");\n                }\n            }\n        }\n        uint256 user_vaccineCount = getUserVaccineCount(user);\n        uint256 required_vaccineCount = getRequiredVaccineCount(name);\n\n        if (user_vaccineCount == required_vaccineCount) {\n            revert(\"Fully vaccinated already.\");\n        }\n    }\n\n    function changeStatus(address user) private {\n        VaccineStatus status = getVaccineStatusOf(user);\n        if (status == VaccineStatus.FULLY_VACCINATED) {\n            fullyVaccinated += 1;\n        }\n        if (status == VaccineStatus.PARTIALLY_VACCINATED) {\n            partiallyVaccinated += 1;\n        }\n    }\n\n    function registerOrganization(string memory name, string memory location)\n        public\n        payable\n    {\n        if (msg.value < REGISTRATION_COST) {\n            revert(\"Insufficient amount.\");\n        }\n        organizations[msg.sender].name = name;\n        organizations[msg.sender].location = location;\n        organizations[msg.sender].registration = true;\n    }\n\n    function approveOrganization(address org) public onlySuperAdmin {\n        if (!organizations[org].registration) {\n            revert(\"Organization must first register to approve.\");\n        }\n        if (organizations[org].approved) {\n            revert(\"Organization is already approved.\");\n        }\n        organizations[org].approved = true;\n        organizationsList.push(org);\n    }\n\n    function approveHealthPerson(address person) public onlyOrganization {\n        if (healthPersons[person].org != msg.sender) {\n            revert(\"Healthperson do not belong to the organization.\");\n        }\n        healthPersons[person].approved = true;\n        organizations[msg.sender].healthPersons.push(person);\n    }\n\n    function registerAsHealthPerson(address org) public payable {\n        if (msg.value < REGISTRATION_COST) {\n            revert(\"Insufficient amount.\");\n        }\n        healthPersons[msg.sender].org = org;\n        healthPersons[msg.sender].approved = false;\n    }\n\n    modifier onlySuperAdmin() {\n        require(msg.sender == superAdmin, \"superAdmin\");\n        _;\n    }\n    modifier onlyOrganization() {\n        require(organizations[msg.sender].approved, \"Organization\");\n        _;\n    }\n    modifier onlyHealthPerson() {\n        require(healthPersons[msg.sender].approved, \"HealthPerson\");\n        _;\n    }\n\n    function getHealthPersonOrganization(address healthPerson)\n        public\n        view\n        returns (address)\n    {\n        return (healthPersons[healthPerson].org);\n    }\n\n    function checkAvailability(\n        string memory name,\n        uint256 batch_id,\n        address healthPerson\n    ) public view {\n        checkVaccine(name);\n        checkBatch(name, batch_id);\n        require(\n            approvedOperators[name][batch_id][healthPersons[healthPerson].org] >\n                0,\n            \"Insufficient vaccine...\"\n        );\n    }\n\n    function getAvailableVaccines(\n        string memory name,\n        uint256 batch,\n        address org\n    ) public view returns (uint256) {\n        return approvedOperators[name][batch][org];\n    }\n}\n",
  "sourcePath": "C:\\Users\\prajw\\Documents\\Vaccine_Ethereum\\contracts\\Vaccination.sol",
  "compiler": {
    "name": "solc",
    "version": "0.8.5+commit.a4f2e591.Emscripten.clang"
  },
  "schemaVersion": "3.4.3",
  "updatedAt": "2021-08-30T06:29:33.217Z",
  "devdoc": {
    "kind": "dev",
    "methods": {},
    "version": 1
  },
  "userdoc": {
    "kind": "user",
    "methods": {},
    "version": 1
  }
}